{
  "_format": "hh-sol-artifact-1",
  "contractName": "ercWrapper",
  "sourceName": "contracts/ERCwrapper.sol",
  "abi": [
    {
      "inputs": [
        {
          "internalType": "address[]",
          "name": "_tokens",
          "type": "address[]"
        },
        {
          "internalType": "address[]",
          "name": "_feeds",
          "type": "address[]"
        }
      ],
      "stateMutability": "nonpayable",
      "type": "constructor"
    },
    {
      "anonymous": false,
      "inputs": [
        {
          "indexed": true,
          "internalType": "address",
          "name": "owner",
          "type": "address"
        },
        {
          "indexed": true,
          "internalType": "address",
          "name": "approved",
          "type": "address"
        },
        {
          "indexed": true,
          "internalType": "uint256",
          "name": "tokenId",
          "type": "uint256"
        }
      ],
      "name": "Approval",
      "type": "event"
    },
    {
      "anonymous": false,
      "inputs": [
        {
          "indexed": true,
          "internalType": "address",
          "name": "owner",
          "type": "address"
        },
        {
          "indexed": true,
          "internalType": "address",
          "name": "operator",
          "type": "address"
        },
        {
          "indexed": false,
          "internalType": "bool",
          "name": "approved",
          "type": "bool"
        }
      ],
      "name": "ApprovalForAll",
      "type": "event"
    },
    {
      "anonymous": false,
      "inputs": [
        {
          "indexed": false,
          "internalType": "address",
          "name": "owner",
          "type": "address"
        },
        {
          "indexed": false,
          "internalType": "uint256",
          "name": "wrapId",
          "type": "uint256"
        },
        {
          "indexed": false,
          "internalType": "address[]",
          "name": "tokens",
          "type": "address[]"
        },
        {
          "indexed": false,
          "internalType": "uint256[]",
          "name": "amounts",
          "type": "uint256[]"
        }
      ],
      "name": "BasketCreated",
      "type": "event"
    },
    {
      "anonymous": false,
      "inputs": [
        {
          "indexed": false,
          "internalType": "uint256",
          "name": "_wrapId",
          "type": "uint256"
        },
        {
          "indexed": false,
          "internalType": "uint256",
          "name": "total",
          "type": "uint256"
        }
      ],
      "name": "BasketPrice",
      "type": "event"
    },
    {
      "anonymous": false,
      "inputs": [
        {
          "indexed": false,
          "internalType": "address",
          "name": "owner",
          "type": "address"
        },
        {
          "indexed": false,
          "internalType": "uint256",
          "name": "wrapId",
          "type": "uint256"
        }
      ],
      "name": "BasketUnwraped",
      "type": "event"
    },
    {
      "anonymous": false,
      "inputs": [
        {
          "indexed": true,
          "internalType": "bytes32",
          "name": "contractId",
          "type": "bytes32"
        },
        {
          "indexed": true,
          "internalType": "address",
          "name": "sender",
          "type": "address"
        },
        {
          "indexed": true,
          "internalType": "address",
          "name": "receiver",
          "type": "address"
        },
        {
          "indexed": false,
          "internalType": "address",
          "name": "tokenContract",
          "type": "address"
        },
        {
          "indexed": false,
          "internalType": "uint256",
          "name": "tokenId",
          "type": "uint256"
        },
        {
          "indexed": false,
          "internalType": "bytes32",
          "name": "hashlock",
          "type": "bytes32"
        },
        {
          "indexed": false,
          "internalType": "uint256",
          "name": "timelock",
          "type": "uint256"
        }
      ],
      "name": "HTLCERC721New",
      "type": "event"
    },
    {
      "anonymous": false,
      "inputs": [
        {
          "indexed": true,
          "internalType": "bytes32",
          "name": "contractId",
          "type": "bytes32"
        }
      ],
      "name": "HTLCERC721Refund",
      "type": "event"
    },
    {
      "anonymous": false,
      "inputs": [
        {
          "indexed": true,
          "internalType": "bytes32",
          "name": "contractId",
          "type": "bytes32"
        }
      ],
      "name": "HTLCERC721Withdraw",
      "type": "event"
    },
    {
      "anonymous": false,
      "inputs": [
        {
          "indexed": false,
          "internalType": "address",
          "name": "owner",
          "type": "address"
        },
        {
          "indexed": false,
          "internalType": "uint256",
          "name": "wrapId",
          "type": "uint256"
        }
      ],
      "name": "OrderCancelled",
      "type": "event"
    },
    {
      "anonymous": false,
      "inputs": [
        {
          "indexed": false,
          "internalType": "address",
          "name": "owner",
          "type": "address"
        },
        {
          "indexed": false,
          "internalType": "uint256",
          "name": "wrapId",
          "type": "uint256"
        },
        {
          "indexed": false,
          "internalType": "uint256",
          "name": "price",
          "type": "uint256"
        },
        {
          "indexed": false,
          "internalType": "uint256",
          "name": "premium",
          "type": "uint256"
        }
      ],
      "name": "OrderCreated",
      "type": "event"
    },
    {
      "anonymous": false,
      "inputs": [
        {
          "indexed": false,
          "internalType": "address",
          "name": "owner",
          "type": "address"
        },
        {
          "indexed": false,
          "internalType": "address",
          "name": "newOwner",
          "type": "address"
        },
        {
          "indexed": false,
          "internalType": "uint256",
          "name": "wrapId",
          "type": "uint256"
        }
      ],
      "name": "OrderFilled",
      "type": "event"
    },
    {
      "anonymous": false,
      "inputs": [
        {
          "indexed": true,
          "internalType": "address",
          "name": "from",
          "type": "address"
        },
        {
          "indexed": true,
          "internalType": "address",
          "name": "to",
          "type": "address"
        },
        {
          "indexed": true,
          "internalType": "uint256",
          "name": "tokenId",
          "type": "uint256"
        }
      ],
      "name": "Transfer",
      "type": "event"
    },
    {
      "stateMutability": "payable",
      "type": "fallback"
    },
    {
      "inputs": [
        {
          "internalType": "address",
          "name": "to",
          "type": "address"
        },
        {
          "internalType": "uint256",
          "name": "tokenId",
          "type": "uint256"
        }
      ],
      "name": "approve",
      "outputs": [],
      "stateMutability": "nonpayable",
      "type": "function"
    },
    {
      "inputs": [
        {
          "internalType": "address",
          "name": "owner",
          "type": "address"
        }
      ],
      "name": "balanceOf",
      "outputs": [
        {
          "internalType": "uint256",
          "name": "",
          "type": "uint256"
        }
      ],
      "stateMutability": "view",
      "type": "function"
    },
    {
      "inputs": [],
      "name": "baseURI",
      "outputs": [
        {
          "internalType": "string",
          "name": "",
          "type": "string"
        }
      ],
      "stateMutability": "view",
      "type": "function"
    },
    {
      "inputs": [
        {
          "internalType": "address",
          "name": "owner",
          "type": "address"
        },
        {
          "internalType": "uint256",
          "name": "_wrapId",
          "type": "uint256"
        }
      ],
      "name": "basketPrice",
      "outputs": [
        {
          "internalType": "uint256",
          "name": "",
          "type": "uint256"
        }
      ],
      "stateMutability": "view",
      "type": "function"
    },
    {
      "inputs": [
        {
          "internalType": "address",
          "name": "",
          "type": "address"
        },
        {
          "internalType": "uint256",
          "name": "",
          "type": "uint256"
        }
      ],
      "name": "bidding",
      "outputs": [
        {
          "internalType": "uint256",
          "name": "price",
          "type": "uint256"
        },
        {
          "internalType": "bool",
          "name": "onSale",
          "type": "bool"
        }
      ],
      "stateMutability": "view",
      "type": "function"
    },
    {
      "inputs": [
        {
          "internalType": "uint256",
          "name": "_wrapId",
          "type": "uint256"
        }
      ],
      "name": "cancelOrder",
      "outputs": [],
      "stateMutability": "nonpayable",
      "type": "function"
    },
    {
      "inputs": [
        {
          "internalType": "uint256",
          "name": "_wrapId",
          "type": "uint256"
        },
        {
          "internalType": "uint256",
          "name": "_premium",
          "type": "uint256"
        }
      ],
      "name": "createOrder",
      "outputs": [],
      "stateMutability": "nonpayable",
      "type": "function"
    },
    {
      "inputs": [
        {
          "internalType": "address payable",
          "name": "_owner",
          "type": "address"
        },
        {
          "internalType": "uint256",
          "name": "_wrapId",
          "type": "uint256"
        }
      ],
      "name": "fillOrder",
      "outputs": [],
      "stateMutability": "payable",
      "type": "function"
    },
    {
      "inputs": [
        {
          "internalType": "uint256",
          "name": "tokenId",
          "type": "uint256"
        }
      ],
      "name": "getApproved",
      "outputs": [
        {
          "internalType": "address",
          "name": "",
          "type": "address"
        }
      ],
      "stateMutability": "view",
      "type": "function"
    },
    {
      "inputs": [
        {
          "internalType": "bytes32",
          "name": "_contractId",
          "type": "bytes32"
        }
      ],
      "name": "getContract",
      "outputs": [
        {
          "internalType": "address",
          "name": "sender",
          "type": "address"
        },
        {
          "internalType": "address",
          "name": "receiver",
          "type": "address"
        },
        {
          "internalType": "address",
          "name": "tokenContract",
          "type": "address"
        },
        {
          "internalType": "uint256",
          "name": "tokenId",
          "type": "uint256"
        },
        {
          "internalType": "bytes32",
          "name": "hashlock",
          "type": "bytes32"
        },
        {
          "internalType": "uint256",
          "name": "timelock",
          "type": "uint256"
        },
        {
          "internalType": "bool",
          "name": "withdrawn",
          "type": "bool"
        },
        {
          "internalType": "bool",
          "name": "refunded",
          "type": "bool"
        },
        {
          "internalType": "bytes32",
          "name": "preimage",
          "type": "bytes32"
        }
      ],
      "stateMutability": "view",
      "type": "function"
    },
    {
      "inputs": [
        {
          "internalType": "address",
          "name": "token",
          "type": "address"
        }
      ],
      "name": "getMember",
      "outputs": [
        {
          "internalType": "address",
          "name": "",
          "type": "address"
        }
      ],
      "stateMutability": "view",
      "type": "function"
    },
    {
      "inputs": [
        {
          "internalType": "address",
          "name": "token",
          "type": "address"
        }
      ],
      "name": "isAllowed",
      "outputs": [
        {
          "internalType": "bool",
          "name": "",
          "type": "bool"
        }
      ],
      "stateMutability": "view",
      "type": "function"
    },
    {
      "inputs": [
        {
          "internalType": "address",
          "name": "owner",
          "type": "address"
        },
        {
          "internalType": "address",
          "name": "operator",
          "type": "address"
        }
      ],
      "name": "isApprovedForAll",
      "outputs": [
        {
          "internalType": "bool",
          "name": "",
          "type": "bool"
        }
      ],
      "stateMutability": "view",
      "type": "function"
    },
    {
      "inputs": [],
      "name": "name",
      "outputs": [
        {
          "internalType": "string",
          "name": "",
          "type": "string"
        }
      ],
      "stateMutability": "view",
      "type": "function"
    },
    {
      "inputs": [
        {
          "internalType": "address",
          "name": "_receiver",
          "type": "address"
        },
        {
          "internalType": "bytes32",
          "name": "_hashlock",
          "type": "bytes32"
        },
        {
          "internalType": "uint256",
          "name": "_timelock",
          "type": "uint256"
        },
        {
          "internalType": "address",
          "name": "_tokenContract",
          "type": "address"
        },
        {
          "internalType": "uint256",
          "name": "_tokenId",
          "type": "uint256"
        }
      ],
      "name": "newContract",
      "outputs": [
        {
          "internalType": "bytes32",
          "name": "contractId",
          "type": "bytes32"
        }
      ],
      "stateMutability": "nonpayable",
      "type": "function"
    },
    {
      "inputs": [
        {
          "internalType": "uint256",
          "name": "tokenId",
          "type": "uint256"
        }
      ],
      "name": "ownerOf",
      "outputs": [
        {
          "internalType": "address",
          "name": "",
          "type": "address"
        }
      ],
      "stateMutability": "view",
      "type": "function"
    },
    {
      "inputs": [
        {
          "internalType": "uint256",
          "name": "_wrapId",
          "type": "uint256"
        }
      ],
      "name": "priceBasket",
      "outputs": [
        {
          "internalType": "uint256",
          "name": "",
          "type": "uint256"
        }
      ],
      "stateMutability": "nonpayable",
      "type": "function"
    },
    {
      "inputs": [
        {
          "internalType": "address",
          "name": "",
          "type": "address"
        }
      ],
      "name": "priceList",
      "outputs": [
        {
          "internalType": "address",
          "name": "",
          "type": "address"
        }
      ],
      "stateMutability": "view",
      "type": "function"
    },
    {
      "inputs": [
        {
          "internalType": "bytes32",
          "name": "_contractId",
          "type": "bytes32"
        }
      ],
      "name": "refund",
      "outputs": [
        {
          "internalType": "bool",
          "name": "",
          "type": "bool"
        }
      ],
      "stateMutability": "nonpayable",
      "type": "function"
    },
    {
      "inputs": [
        {
          "internalType": "address",
          "name": "from",
          "type": "address"
        },
        {
          "internalType": "address",
          "name": "to",
          "type": "address"
        },
        {
          "internalType": "uint256",
          "name": "tokenId",
          "type": "uint256"
        }
      ],
      "name": "safeTransferFrom",
      "outputs": [],
      "stateMutability": "nonpayable",
      "type": "function"
    },
    {
      "inputs": [
        {
          "internalType": "address",
          "name": "from",
          "type": "address"
        },
        {
          "internalType": "address",
          "name": "to",
          "type": "address"
        },
        {
          "internalType": "uint256",
          "name": "tokenId",
          "type": "uint256"
        },
        {
          "internalType": "bytes",
          "name": "_data",
          "type": "bytes"
        }
      ],
      "name": "safeTransferFrom",
      "outputs": [],
      "stateMutability": "nonpayable",
      "type": "function"
    },
    {
      "inputs": [
        {
          "internalType": "address",
          "name": "operator",
          "type": "address"
        },
        {
          "internalType": "bool",
          "name": "approved",
          "type": "bool"
        }
      ],
      "name": "setApprovalForAll",
      "outputs": [],
      "stateMutability": "nonpayable",
      "type": "function"
    },
    {
      "inputs": [
        {
          "internalType": "bytes4",
          "name": "interfaceId",
          "type": "bytes4"
        }
      ],
      "name": "supportsInterface",
      "outputs": [
        {
          "internalType": "bool",
          "name": "",
          "type": "bool"
        }
      ],
      "stateMutability": "view",
      "type": "function"
    },
    {
      "inputs": [],
      "name": "symbol",
      "outputs": [
        {
          "internalType": "string",
          "name": "",
          "type": "string"
        }
      ],
      "stateMutability": "view",
      "type": "function"
    },
    {
      "inputs": [
        {
          "internalType": "uint256",
          "name": "index",
          "type": "uint256"
        }
      ],
      "name": "tokenByIndex",
      "outputs": [
        {
          "internalType": "uint256",
          "name": "",
          "type": "uint256"
        }
      ],
      "stateMutability": "view",
      "type": "function"
    },
    {
      "inputs": [
        {
          "internalType": "address",
          "name": "owner",
          "type": "address"
        },
        {
          "internalType": "uint256",
          "name": "index",
          "type": "uint256"
        }
      ],
      "name": "tokenOfOwnerByIndex",
      "outputs": [
        {
          "internalType": "uint256",
          "name": "",
          "type": "uint256"
        }
      ],
      "stateMutability": "view",
      "type": "function"
    },
    {
      "inputs": [
        {
          "internalType": "uint256",
          "name": "tokenId",
          "type": "uint256"
        }
      ],
      "name": "tokenURI",
      "outputs": [
        {
          "internalType": "string",
          "name": "",
          "type": "string"
        }
      ],
      "stateMutability": "view",
      "type": "function"
    },
    {
      "inputs": [],
      "name": "totalSupply",
      "outputs": [
        {
          "internalType": "uint256",
          "name": "",
          "type": "uint256"
        }
      ],
      "stateMutability": "view",
      "type": "function"
    },
    {
      "inputs": [
        {
          "internalType": "address",
          "name": "from",
          "type": "address"
        },
        {
          "internalType": "address",
          "name": "to",
          "type": "address"
        },
        {
          "internalType": "uint256",
          "name": "tokenId",
          "type": "uint256"
        }
      ],
      "name": "transferFrom",
      "outputs": [],
      "stateMutability": "nonpayable",
      "type": "function"
    },
    {
      "inputs": [
        {
          "internalType": "uint256",
          "name": "_wrapId",
          "type": "uint256"
        }
      ],
      "name": "unwrapper",
      "outputs": [],
      "stateMutability": "nonpayable",
      "type": "function"
    },
    {
      "inputs": [
        {
          "internalType": "uint256",
          "name": "_wrapId",
          "type": "uint256"
        },
        {
          "internalType": "uint256",
          "name": "_premium",
          "type": "uint256"
        }
      ],
      "name": "updatePrice",
      "outputs": [
        {
          "internalType": "uint256",
          "name": "",
          "type": "uint256"
        }
      ],
      "stateMutability": "nonpayable",
      "type": "function"
    },
    {
      "inputs": [
        {
          "internalType": "bytes32",
          "name": "_contractId",
          "type": "bytes32"
        },
        {
          "internalType": "bytes32",
          "name": "_preimage",
          "type": "bytes32"
        }
      ],
      "name": "withdraw",
      "outputs": [
        {
          "internalType": "bool",
          "name": "",
          "type": "bool"
        }
      ],
      "stateMutability": "nonpayable",
      "type": "function"
    },
    {
      "inputs": [
        {
          "internalType": "address",
          "name": "",
          "type": "address"
        },
        {
          "internalType": "uint256",
          "name": "",
          "type": "uint256"
        }
      ],
      "name": "wrapped",
      "outputs": [
        {
          "internalType": "bool",
          "name": "locked",
          "type": "bool"
        }
      ],
      "stateMutability": "view",
      "type": "function"
    },
    {
      "inputs": [
        {
          "internalType": "uint256",
          "name": "_wrapId",
          "type": "uint256"
        }
      ],
      "name": "wrappedBalance",
      "outputs": [
        {
          "internalType": "uint256",
          "name": "id",
          "type": "uint256"
        },
        {
          "internalType": "address[]",
          "name": "tokens",
          "type": "address[]"
        },
        {
          "internalType": "uint256[]",
          "name": "amounts",
          "type": "uint256[]"
        }
      ],
      "stateMutability": "view",
      "type": "function"
    },
    {
      "inputs": [
        {
          "internalType": "address[]",
          "name": "tokens",
          "type": "address[]"
        },
        {
          "internalType": "uint256[]",
          "name": "amounts",
          "type": "uint256[]"
        }
      ],
      "name": "wrapper",
      "outputs": [],
      "stateMutability": "nonpayable",
      "type": "function"
    },
    {
      "stateMutability": "payable",
      "type": "receive"
    }
  ],
  "bytecode": "0x60806040523480156200001157600080fd5b50604051620046ac380380620046ac83398101604081905262000034916200035e565b8181604051806040016040528060078152602001662130b9b5b2ba3d60c91b81525060405180604001604052806005815260200164042575241560dc1b8152506200008c6301ffc9a760e01b6200017360201b60201c565b8151620000a1906006906020850190620001f8565b508051620000b7906007906020840190620001f8565b50620000ca6380ac58cd60e01b62000173565b620000dc635b5e139f60e01b62000173565b620000ee63780e9d6360e01b62000173565b505060005b825181101562000168578181815181106200010a57fe5b6020026020010151600a60008584815181106200012357fe5b6020908102919091018101516001600160a01b0390811683529082019290925260400160002080546001600160a01b03191692909116919091179055600101620000f3565b5050505050620003c5565b6001600160e01b03198082161415620001d3576040805162461bcd60e51b815260206004820152601c60248201527f4552433136353a20696e76616c696420696e7465726661636520696400000000604482015290519081900360640190fd5b6001600160e01b0319166000908152602081905260409020805460ff19166001179055565b828054600181600116156101000203166002900490600052602060002090601f0160209004810192826200023057600085556200027b565b82601f106200024b57805160ff19168380011785556200027b565b828001600101855582156200027b579182015b828111156200027b5782518255916020019190600101906200025e565b50620002899291506200028d565b5090565b5b808211156200028957600081556001016200028e565b80516001600160a01b0381168114620002bc57600080fd5b919050565b600082601f830112620002d2578081fd5b81516001600160401b0380821115620002e757fe5b6020808302604051828282010181811085821117156200030357fe5b6040528481529450818501925085820181870183018810156200032557600080fd5b600091505b8482101562000353576200033e81620002a4565b8452928201926001919091019082016200032a565b505050505092915050565b6000806040838503121562000371578182fd5b82516001600160401b038082111562000388578384fd5b6200039686838701620002c1565b93506020850151915080821115620003ac578283fd5b50620003bb85828601620002c1565b9150509250929050565b6142d780620003d56000396000f3fe6080604052600436106102085760003560e01c80636352211e1161011857806395d89b41116100a0578063babcc5391161006f578063babcc539146105e4578063c87b56dd14610604578063e16c7d9814610624578063e985e9c514610659578063f795aa04146106795761020f565b806395d89b411461057c5780639c7264d714610591578063a22cb465146105a4578063b88d4fde146105c45761020f565b80637249fbb6116100e75780637249fbb6146104cd57806379109baa146104ed57806382367b2d1461050d57806386019e1d1461052d5780638d95ec621461054d5761020f565b80636352211e1461045857806363615149146104785780636c0360eb1461049857806370a08231146104ad5761020f565b80632f745c591161019b57806342842e0e1161016a57806342842e0e146103b85780634a3af530146103d85780634cbe9a89146103f85780634f6ccce714610418578063514fcac7146104385761020f565b80632f745c5914610338578063398a7a98146103585780633dbcfabc1461037857806341f8b636146103985761020f565b80630ad66ae4116101d75780630ad66ae4146102b657806318160ddd146102d657806323b872dd146102f85780632ada2596146103185761020f565b806301ffc9a71461021157806306fdde0314610247578063081812fc14610269578063095ea7b3146102965761020f565b3661020f57005b005b34801561021d57600080fd5b5061023161022c366004613a50565b6106a7565b60405161023e9190613c9f565b60405180910390f35b34801561025357600080fd5b5061025c6106ca565b60405161023e9190613cb3565b34801561027557600080fd5b506102896102843660046139ff565b610760565b60405161023e9190613b9d565b3480156102a257600080fd5b5061020f6102b136600461390e565b6107c2565b3480156102c257600080fd5b5061020f6102d1366004613920565b610898565b3480156102e257600080fd5b506102eb610a9e565b60405161023e9190613caa565b34801561030457600080fd5b5061020f61031336600461379a565b610aaf565b34801561032457600080fd5b5061028961033336600461371b565b610b06565b34801561034457600080fd5b506102eb61035336600461390e565b610b24565b34801561036457600080fd5b506102eb6103733660046138bd565b610b4f565b34801561038457600080fd5b5061020f6103933660046139ff565b610f1a565b3480156103a457600080fd5b506102896103b336600461371b565b611218565b3480156103c457600080fd5b5061020f6103d336600461379a565b611233565b3480156103e457600080fd5b506102eb6103f33660046139ff565b61124e565b34801561040457600080fd5b506102eb61041336600461390e565b61140c565b34801561042457600080fd5b506102eb6104333660046139ff565b611434565b34801561044457600080fd5b5061020f6104533660046139ff565b61144a565b34801561046457600080fd5b506102896104733660046139ff565b611544565b34801561048457600080fd5b50610231610493366004613a2f565b61156c565b3480156104a457600080fd5b5061025c61187c565b3480156104b957600080fd5b506102eb6104c836600461371b565b6118dd565b3480156104d957600080fd5b506102316104e83660046139ff565b611945565b3480156104f957600080fd5b5061020f610508366004613a2f565b611bed565b34801561051957600080fd5b506102eb610528366004613a2f565b611d25565b34801561053957600080fd5b5061023161054836600461390e565b611dd9565b34801561055957600080fd5b5061056d6105683660046139ff565b611dfc565b60405161023e93929190613f0a565b34801561058857600080fd5b5061025c611ef1565b61020f61059f366004613737565b611f52565b3480156105b057600080fd5b5061020f6105bf366004613890565b612140565b3480156105d057600080fd5b5061020f6105df3660046137da565b612245565b3480156105f057600080fd5b506102316105ff36600461371b565b6122a3565b34801561061057600080fd5b5061025c61061f3660046139ff565b6122c3565b34801561063057600080fd5b5061064461063f3660046139ff565b612546565b60405161023e99989796959493929190613c4d565b34801561066557600080fd5b50610231610674366004613762565b6125f2565b34801561068557600080fd5b5061069961069436600461390e565b612620565b60405161023e929190613f3f565b6001600160e01b0319811660009081526020819052604090205460ff165b919050565b60068054604080516020601f60026000196101006001881615020190951694909404938401819004810282018101909252828152606093909290918301828280156107565780601f1061072b57610100808354040283529160200191610756565b820191906000526020600020905b81548152906001019060200180831161073957829003601f168201915b5050505050905090565b600061076b82612647565b6107a65760405162461bcd60e51b815260040180806020018281038252602c8152602001806141cc602c913960400191505060405180910390fd5b506000908152600460205260409020546001600160a01b031690565b60006107cd82611544565b9050806001600160a01b0316836001600160a01b031614156108205760405162461bcd60e51b81526004018080602001828103825260218152602001806142506021913960400191505060405180910390fd5b806001600160a01b0316610832612654565b6001600160a01b0316148061084e575061084e81610674612654565b6108895760405162461bcd60e51b815260040180806020018281038252603881526020018061411f6038913960400191505060405180910390fd5b6108938383612658565b505050565b60005b82518110156109bd5760006108c28483815181106108b557fe5b60200260200101516122a3565b9050806108ea5760405162461bcd60e51b81526004016108e190613d1d565b60405180910390fd5b60008483815181106108f857fe5b60200260200101516001600160a01b03166323b872dd333087878151811061091c57fe5b60200260200101516040518463ffffffff1660e01b815260040161094293929190613bb1565b602060405180830381600087803b15801561095c57600080fd5b505af1158015610970573d6000803e3d6000fd5b505050506040513d601f19601f8201168201806040525081019061099491906139e3565b9050806109b35760405162461bcd60e51b81526004016108e190613d5e565b505060010161089b565b506109c8600c6126c6565b60006109d4600c6126cf565b6040805160608101825285815260208082018690526000828401819052338152600e82528381208582528252929092208151805194955091939092610a1d92849291019061353d565b506020828101518051610a3692600185019201906135a2565b50604091909101516002909101805460ff1916911515919091179055610a5c33826126d3565b7f201817741bf39af37504e79ba3ae0841a144f6b861985751e86abfa978df618433828585604051610a919493929190613bee565b60405180910390a1505050565b6000610aaa6002612801565b905090565b610ac0610aba612654565b8261280c565b610afb5760405162461bcd60e51b81526004018080602001828103825260318152602001806142716031913960400191505060405180910390fd5b6108938383836128b0565b6001600160a01b039081166000908152600a60205260409020541690565b6001600160a01b0382166000908152600160205260408120610b4690836129c5565b90505b92915050565b60008282306001600160a01b0316826001600160a01b031663081812fc836040518263ffffffff1660e01b81526004018082815260200191505060206040518083038186803b158015610ba157600080fd5b505afa158015610bb5573d6000803e3d6000fd5b505050506040513d6020811015610bcb57600080fd5b50516001600160a01b031614610c125760405162461bcd60e51b8152600401808060200182810382526046815260200180613fef6046913960600191505060405180910390fd5b85428111610c515760405162461bcd60e51b81526004018080602001828103825260238152602001806140576023913960400191505060405180910390fd5b6002338a88888c8c604051602001610c6e96959493929190613b39565b60408051601f1981840301815290829052610c8891613b81565b602060405180830381855afa158015610ca5573d6000803e3d6000fd5b5050506040513d601f19601f82011682018060405250810190610cc89190613a17565b9350610cd3846129d1565b15610cf05760405162461bcd60e51b81526004016108e190613d87565b6040516323b872dd60e01b81526001600160a01b038716906323b872dd90610d2090339030908a90600401613bb1565b600060405180830381600087803b158015610d3a57600080fd5b505af1158015610d4e573d6000803e3d6000fd5b50505050604051806101200160405280336001600160a01b031681526020018a6001600160a01b03168152602001876001600160a01b031681526020018681526020018981526020018881526020016000151581526020016000151581526020016000801b815250600b600086815260200190815260200160002060008201518160000160006101000a8154816001600160a01b0302191690836001600160a01b0316021790555060208201518160010160006101000a8154816001600160a01b0302191690836001600160a01b0316021790555060408201518160020160006101000a8154816001600160a01b0302191690836001600160a01b03160217905550606082015181600301556080820151816004015560a0820151816005015560c08201518160060160006101000a81548160ff02191690831515021790555060e08201518160060160016101000a81548160ff0219169083151502179055506101008201518160070155905050886001600160a01b0316336001600160a01b0316857fb02ad9e7e61bb795ea1b7083cc09e3fd4d3a4ea3d79c5bd55a0960643dbc20ff89898d8d604051610f069493929190613c27565b60405180910390a450505095945050505050565b33610f2482611544565b6001600160a01b031614610f4a5760405162461bcd60e51b81526004016108e190613ce6565b336000908152600e6020908152604080832084845290915290206002015460ff1615610f885760405162461bcd60e51b81526004016108e190613edc565b60005b336000908152600e6020908152604080832085845290915290205481101561119357336000908152600e602090815260408083208584529091529020805482908110610fd357fe5b6000918252602080832090910154338352600e82526040808420868552909252912060010180546001600160a01b039092169163095ea7b39130918590811061101857fe5b90600052602060002001546040518363ffffffff1660e01b8152600401611040929190613bd5565b602060405180830381600087803b15801561105a57600080fd5b505af115801561106e573d6000803e3d6000fd5b505050506040513d601f19601f8201168201806040525081019061109291906139e3565b50336000908152600e6020908152604080832085845290915281208054839081106110b957fe5b600091825260208083209091015433808452600e835260408085208886529093529190922060010180546001600160a01b03909316926323b872dd92309290918790811061110357fe5b90600052602060002001546040518463ffffffff1660e01b815260040161112c93929190613bb1565b602060405180830381600087803b15801561114657600080fd5b505af115801561115a573d6000803e3d6000fd5b505050506040513d601f19601f8201168201806040525081019061117e91906139e3565b90508061118a57600080fd5b50600101610f8b565b50336000908152600e602090815260408083208484529091528120906111b982826135dd565b6111c76001830160006135dd565b50600201805460ff191690556111dc816129ee565b7fa042599eaa9bf76bf7286f284f91207ad30664772c838a28f60b8b69b1197b34338260405161120d929190613bd5565b60405180910390a150565b600a602052600090815260409020546001600160a01b031681565b61089383838360405180602001604052806000815250612245565b60003361125a83611544565b6001600160a01b0316146112805760405162461bcd60e51b81526004016108e190613ce6565b6000805b336000908152600e602090815260408083208784529091529020548110156113cc57336000908152600e60209081526040808320878452909152812080546112eb9190849081106112d157fe5b6000918252602090912001546001600160a01b0316610b06565b905080600d60006101000a8154816001600160a01b0302191690836001600160a01b031602179055506000806000806000600d60009054906101000a90046001600160a01b03166001600160a01b031663feaf968c6040518163ffffffff1660e01b815260040160a06040518083038186803b15801561136a57600080fd5b505afa15801561137e573d6000803e3d6000fd5b505050506040513d601f19601f820116820180604052508101906113a29190613a78565b9398509196509450925090506113b88885612abb565b975050600190950194506112849350505050565b507fb85696d106426e8ec89f1d618868e29dc26b9adf5cc92162e8a9f54d063db92483826040516113fe929190613f4f565b60405180910390a192915050565b6001600160a01b03919091166000908152600f60209081526040808320938352929052205490565b600080611442600284612b15565b509392505050565b600061145582611544565b90506001600160a01b038116331461147f5760405162461bcd60e51b81526004016108e190613ce6565b336000908152600e6020908152604080832085845290915290206002015460ff1615156001146114c15760405162461bcd60e51b81526004016108e190613dee565b336000818152600f602090815260408083208684528252808320838155600101805460ff19908116909155848452600e83528184208785529092529182902060020180549091169055517fdd003742fb214507783ce004fe55f5ac14f89c6de4a7cd7487e47eb091c6226591611538918590613bd5565b60405180910390a15050565b6000610b49826040518060600160405280602981526020016141816029913960029190612b31565b600082611578816129d1565b6115c5576040805162461bcd60e51b815260206004820152601960248201527818dbdb9d1c9858dd125908191bd95cc81b9bdd08195e1a5cdd603a1b604482015290519081900360640190fd5b8383600281604051602001808281526020019150506040516020818303038152906040526040518082805190602001908083835b602083106116185780518252601f1990920191602091820191016115f9565b51815160209384036101000a60001901801990921691161790526040519190930194509192505080830381855afa158015611657573d6000803e3d6000fd5b5050506040513d602081101561166c57600080fd5b50516000838152600b6020526040902060040154146116d2576040805162461bcd60e51b815260206004820152601c60248201527f686173686c6f636b206861736820646f6573206e6f74206d6174636800000000604482015290519081900360640190fd5b6000868152600b602052604090206001015486906001600160a01b03163314611742576040805162461bcd60e51b815260206004820152601a60248201527f776974686472617761626c653a206e6f74207265636569766572000000000000604482015290519081900360640190fd5b6000818152600b602052604090206006015460ff16156117a9576040805162461bcd60e51b815260206004820152601f60248201527f776974686472617761626c653a20616c72656164792077697468647261776e00604482015290519081900360640190fd5b6000878152600b6020526040908190206007810188905560068101805460ff19166001908117909155600282015490820154600383015493516323b872dd60e01b815292936001600160a01b03928316936323b872dd93611811933093911691600401613bb1565b600060405180830381600087803b15801561182b57600080fd5b505af115801561183f573d6000803e3d6000fd5b50506040518a92507fb7358acefea4917350b35745bfd31b7cb6f943bec8883d36d66ab946141c27f69150600090a2506001979650505050505050565b60098054604080516020601f60026000196101006001881615020190951694909404938401819004810282018101909252828152606093909290918301828280156107565780601f1061072b57610100808354040283529160200191610756565b60006001600160a01b0382166119245760405162461bcd60e51b815260040180806020018281038252602a815260200180614157602a913960400191505060405180910390fd5b6001600160a01b0382166000908152600160205260409020610b4990612801565b600081611951816129d1565b61199e576040805162461bcd60e51b815260206004820152601960248201527818dbdb9d1c9858dd125908191bd95cc81b9bdd08195e1a5cdd603a1b604482015290519081900360640190fd5b6000838152600b602052604090205483906001600160a01b03163314611a04576040805162461bcd60e51b81526020600482015260166024820152753932b33ab73230b136329d103737ba1039b2b73232b960511b604482015290519081900360640190fd5b6000818152600b6020526040902060060154610100900460ff1615611a70576040805162461bcd60e51b815260206004820152601c60248201527f726566756e6461626c653a20616c726561647920726566756e64656400000000604482015290519081900360640190fd5b6000818152600b602052604090206006015460ff1615611ad7576040805162461bcd60e51b815260206004820152601d60248201527f726566756e6461626c653a20616c72656164792077697468647261776e000000604482015290519081900360640190fd5b6000818152600b6020526040902060050154421015611b275760405162461bcd60e51b81526004018080602001828103825260238152602001806140d06023913960400191505060405180910390fd5b6000848152600b60205260409081902060068101805461ff00191661010017905560028101548154600383015493516323b872dd60e01b815292936001600160a01b03928316936323b872dd93611b85933093911691600401613bb1565b600060405180830381600087803b158015611b9f57600080fd5b505af1158015611bb3573d6000803e3d6000fd5b50506040518792507fba3a5e0fba071659b91c5265298818069091d4c67108a685ee376f779a606fa79150600090a2506001949350505050565b33611bf783611544565b6001600160a01b031614611c1d5760405162461bcd60e51b81526004016108e190613ce6565b336000908152600f6020908152604080832085845290915290206001015460ff1615611c5b5760405162461bcd60e51b81526004016108e190613ead565b336000908152600e602090815260408083208584529091528120600201805460ff19166001179055611c8c8361124e565b90506000611c9a8284612abb565b60408051808201825282815260016020808301828152336000818152600f84528681208c825290935291859020935184555192909101805460ff19169215159290921790915590519192507fc91f8c0f477cf15f9c2817f9ebd625732b44c4753ed718ae0276a96577a69f7291611d179190879085908890613c27565b60405180910390a150505050565b600033611d3184611544565b6001600160a01b031614611d575760405162461bcd60e51b81526004016108e190613ce6565b336000908152600f60209081526040808320868452909152902060019081015460ff16151514611d995760405162461bcd60e51b81526004016108e190613e14565b6000611da48461124e565b90506000611db28285612abb565b336000908152600f6020908152604080832089845290915290208190559250505092915050565b600e60209081526000928352604080842090915290825290206002015460ff1681565b60006060806000611e0c85611544565b6001600160a01b0381166000908152600e60209081526040808320898452825291829020805483518184028101840190945280845293945088939092600184019290918491830182828015611e8a57602002820191906000526020600020905b81546001600160a01b03168152600190910190602001808311611e6c575b5050505050915080805480602002602001604051908101604052809291908181526020018280548015611edc57602002820191906000526020600020905b815481526020019060010190808311611ec8575b50505050509050935093509350509193909250565b60078054604080516020601f60026000196101006001881615020190951694909404938401819004810282018101909252828152606093909290918301828280156107565780601f1061072b57610100808354040283529160200191610756565b6001600160a01b0382166000908152600e6020908152604080832084845290915290206002015460ff161515600114611f9d5760405162461bcd60e51b81526004016108e190613e3f565b6001600160a01b0382166000908152600f60209081526040808320848452909152902054341015611fe05760405162461bcd60e51b81526004016108e190613e76565b6040516001600160a01b038316903480156108fc02916000818181858888f19350505050158015612015573d6000803e3d6000fd5b506001600160a01b0382166000908152600e602090815260408083208484529091529020600201805460ff1916905561204f823383612b48565b6001600160a01b0382166000908152600e602081815260408084208585528252808420338552928252808420858552909152909120815461209390829084906135fe565b50600182810180546120a892840191906135fe565b506002918201549101805460ff191660ff90921615159190911790556001600160a01b0382166000908152600e602090815260408083208484529091528120906120f282826135dd565b6121006001830160006135dd565b50600201805460ff191690556040517faa6a8cbc2c524c9ad517115b1bcb28f16ad387b733ba40045e19871d53e981679061153890849033908590613bb1565b612148612654565b6001600160a01b0316826001600160a01b031614156121ae576040805162461bcd60e51b815260206004820152601960248201527f4552433732313a20617070726f766520746f2063616c6c657200000000000000604482015290519081900360640190fd5b80600560006121bb612654565b6001600160a01b03908116825260208083019390935260409182016000908120918716808252919093529120805460ff1916921515929092179091556121ff612654565b6001600160a01b03167f17307eab39ab6107e8899845ad3d59bd9653f200f220920489ca2b5937696c318360405180821515815260200191505060405180910390a35050565b612256612250612654565b8361280c565b6122915760405162461bcd60e51b81526004018080602001828103825260318152602001806142716031913960400191505060405180910390fd5b61229d84848484612c94565b50505050565b6001600160a01b039081166000908152600a602052604090205416151590565b60606122ce82612647565b6123095760405162461bcd60e51b815260040180806020018281038252602f815260200180614221602f913960400191505060405180910390fd5b60008281526008602090815260409182902080548351601f600260001961010060018616150201909316929092049182018490048402810184019094528084526060939283018282801561239e5780601f106123735761010080835404028352916020019161239e565b820191906000526020600020905b81548152906001019060200180831161238157829003601f168201915b5050505050905060606123af61187c565b90508051600014156123c3575090506106c5565b8151156124845780826040516020018083805190602001908083835b602083106123fe5780518252601f1990920191602091820191016123df565b51815160209384036101000a600019018019909216911617905285519190930192850191508083835b602083106124465780518252601f199092019160209182019101612427565b6001836020036101000a03801982511681845116808217855250505050505090500192505050604051602081830303815290604052925050506106c5565b8061248e85612ce6565b6040516020018083805190602001908083835b602083106124c05780518252601f1990920191602091820191016124a1565b51815160209384036101000a600019018019909216911617905285519190930192850191508083835b602083106125085780518252601f1990920191602091820191016124e9565b6001836020036101000a0380198251168184511680821785525050505050509050019250505060405160208183030381529060405292505050919050565b600080600080600080600080600061255d8a6129d1565b612581575060009750879650869550859450849350839250829150819050806125e5565b5050506000878152600b6020526040902080546001820154600283015460038401546004850154600586015460068701546007909701546001600160a01b039687169d509486169b509490921698509650945090925060ff80831692610100900416905b9193959799909294969850565b6001600160a01b03918216600090815260056020908152604080832093909416825291909152205460ff1690565b600f6020908152600092835260408084209091529082529020805460019091015460ff1682565b6000610b49600283612dc1565b3390565b600081815260046020526040902080546001600160a01b0319166001600160a01b038416908117909155819061268d82611544565b6001600160a01b03167f8c5be1e5ebec7d5bd14f71427d1e84f3dd0314c0f7b2291e5b200ac8c7c3b92560405160405180910390a45050565b80546001019055565b5490565b6001600160a01b03821661272e576040805162461bcd60e51b815260206004820181905260248201527f4552433732313a206d696e7420746f20746865207a65726f2061646472657373604482015290519081900360640190fd5b61273781612647565b15612789576040805162461bcd60e51b815260206004820152601c60248201527f4552433732313a20746f6b656e20616c7265616479206d696e74656400000000604482015290519081900360640190fd5b61279560008383610893565b6001600160a01b03821660009081526001602052604090206127b79082612dcd565b506127c460028284612dd9565b5060405181906001600160a01b038416906000907fddf252ad1be2c89b69c2b068fc378daa952ba7f163c4a11628f55a4df523b3ef908290a45050565b6000610b49826126cf565b600061281782612647565b6128525760405162461bcd60e51b815260040180806020018281038252602c8152602001806140f3602c913960400191505060405180910390fd5b600061285d83611544565b9050806001600160a01b0316846001600160a01b031614806128985750836001600160a01b031661288d84610760565b6001600160a01b0316145b806128a857506128a881856125f2565b949350505050565b6001600160a01b0383166000908152600e6020908152604080832084845290915290206002015460ff16156128f75760405162461bcd60e51b81526004016108e190613dbe565b6001600160a01b038084166000908152600e602081815260408084208685528252808420948716845291815281832085845290529020815461293c90829084906135fe565b506001828101805461295192840191906135fe565b506002918201549101805460ff191660ff9092161515919091179055612978838383612b48565b6001600160a01b0383166000908152600e602090815260408083208484529091528120906129a682826135dd565b6129b46001830160006135dd565b50600201805460ff19169055505050565b6000610b468383612def565b6000908152600b60205260409020546001600160a01b0316151590565b60006129f982611544565b9050612a0781600084610893565b612a12600083612658565b6000828152600860205260409020546002600019610100600184161502019091160415612a50576000828152600860205260408120612a509161363e565b6001600160a01b0381166000908152600160205260409020612a729083612e53565b50612a7e600283612e5f565b5060405182906000906001600160a01b038416907fddf252ad1be2c89b69c2b068fc378daa952ba7f163c4a11628f55a4df523b3ef908390a45050565b600082820183811015610b46576040805162461bcd60e51b815260206004820152601b60248201527f536166654d6174683a206164646974696f6e206f766572666c6f770000000000604482015290519081900360640190fd5b6000808080612b248686612e6b565b9097909650945050505050565b6000612b3e848484612ee6565b90505b9392505050565b826001600160a01b0316612b5b82611544565b6001600160a01b031614612ba05760405162461bcd60e51b81526004018080602001828103825260298152602001806141f86029913960400191505060405180910390fd5b6001600160a01b038216612be55760405162461bcd60e51b81526004018080602001828103825260248152602001806140ac6024913960400191505060405180910390fd5b612bf0838383610893565b612bfb600082612658565b6001600160a01b0383166000908152600160205260409020612c1d9082612e53565b506001600160a01b0382166000908152600160205260409020612c409082612dcd565b50612c4d60028284612dd9565b5080826001600160a01b0316846001600160a01b03167fddf252ad1be2c89b69c2b068fc378daa952ba7f163c4a11628f55a4df523b3ef60405160405180910390a4505050565b612c9f8484846128b0565b612cab84848484612fb0565b61229d5760405162461bcd60e51b815260040180806020018281038252603281526020018061407a6032913960400191505060405180910390fd5b606081612d0b57506040805180820190915260018152600360fc1b60208201526106c5565b8160005b8115612d2357600101600a82049150612d0f565b60608167ffffffffffffffff81118015612d3c57600080fd5b506040519080825280601f01601f191660200182016040528015612d67576020820181803683370190505b50859350905060001982015b8315612db857600a840660300160f81b82828060019003935081518110612d9657fe5b60200101906001600160f81b031916908160001a905350600a84049350612d73565b50949350505050565b6000610b468383613118565b6000610b468383613130565b6000612b3e84846001600160a01b03851661317a565b81546000908210612e315760405162461bcd60e51b81526004018080602001828103825260228152602001806140356022913960400191505060405180910390fd5b826000018281548110612e4057fe5b9060005260206000200154905092915050565b6000610b468383613211565b6000610b4683836132d7565b815460009081908310612eaf5760405162461bcd60e51b81526004018080602001828103825260228152602001806141aa6022913960400191505060405180910390fd5b6000846000018481548110612ec057fe5b906000526020600020906002020190508060000154816001015492509250509250929050565b60008281526001840160205260408120548281612f815760405162461bcd60e51b81526004018080602001828103825283818151815260200191508051906020019080838360005b83811015612f46578181015183820152602001612f2e565b50505050905090810190601f168015612f735780820380516001836020036101000a031916815260200191505b509250505060405180910390fd5b50846000016001820381548110612f9457fe5b9060005260206000209060020201600101549150509392505050565b6000612fc4846001600160a01b03166133ab565b612fd0575060016128a8565b60606130de630a85bd0160e11b612fe5612654565b88878760405160240180856001600160a01b03168152602001846001600160a01b0316815260200183815260200180602001828103825283818151815260200191508051906020019080838360005b8381101561304c578181015183820152602001613034565b50505050905090810190601f1680156130795780820380516001836020036101000a031916815260200191505b5095505050505050604051602081830303815290604052906001600160e01b0319166020820180516001600160e01b03838183161783525050505060405180606001604052806032815260200161407a603291396001600160a01b03881691906133b1565b905060008180602001905160208110156130f757600080fd5b50516001600160e01b031916630a85bd0160e11b1492505050949350505050565b60009081526001919091016020526040902054151590565b600061313c8383613118565b61317257508154600181810184556000848152602080822090930184905584548482528286019093526040902091909155610b49565b506000610b49565b6000828152600184016020526040812054806131df575050604080518082018252838152602080820184815286546001818101895560008981528481209551600290930290950191825591519082015586548684528188019092529290912055612b41565b828560000160018303815481106131f257fe5b9060005260206000209060020201600101819055506000915050612b41565b600081815260018301602052604081205480156132cd578354600019808301919081019060009087908390811061324457fe5b906000526020600020015490508087600001848154811061326157fe5b60009182526020808320909101929092558281526001898101909252604090209084019055865487908061329157fe5b60019003818190600052602060002001600090559055866001016000878152602001908152602001600020600090556001945050505050610b49565b6000915050610b49565b600081815260018301602052604081205480156132cd578354600019808301919081019060009087908390811061330a57fe5b906000526020600020906002020190508087600001848154811061332a57fe5b60009182526020808320845460029093020191825560019384015491840191909155835482528983019052604090209084019055865487908061336957fe5b6000828152602080822060026000199094019384020182815560019081018390559290935588815289820190925260408220919091559450610b499350505050565b3b151590565b6060612b3e8484600085856133c5856133ab565b613416576040805162461bcd60e51b815260206004820152601d60248201527f416464726573733a2063616c6c20746f206e6f6e2d636f6e7472616374000000604482015290519081900360640190fd5b60006060866001600160a01b031685876040518082805190602001908083835b602083106134555780518252601f199092019160209182019101613436565b6001836020036101000a03801982511681845116808217855250505050505090500191505060006040518083038185875af1925050503d80600081146134b7576040519150601f19603f3d011682016040523d82523d6000602084013e6134bc565b606091505b50915091506134cc8282866134d7565b979650505050505050565b606083156134e6575081612b41565b8251156134f65782518084602001fd5b60405162461bcd60e51b8152602060048201818152845160248401528451859391928392604401919085019080838360008315612f46578181015183820152602001612f2e565b828054828255906000526020600020908101928215613592579160200282015b8281111561359257825182546001600160a01b0319166001600160a01b0390911617825560209092019160019091019061355d565b5061359e92915061367e565b5090565b828054828255906000526020600020908101928215613592579160200282015b828111156135925782518255916020019190600101906135c2565b50805460008255906000526020600020908101906135fb919061367e565b50565b8280548282559060005260206000209081019282156135925760005260206000209182015b82811115613592578254825591600101919060010190613623565b50805460018160011615610100020316600290046000825580601f1061366457506135fb565b601f0160209004906000526020600020908101906135fb91905b5b8082111561359e576000815560010161367f565b600082601f8301126136a3578081fd5b81356136b66136b182613f81565b613f5d565b8181529150602080830190848101818402860182018710156136d757600080fd5b60005b848110156136f6578135845292820192908201906001016136da565b505050505092915050565b805169ffffffffffffffffffff811681146106c557600080fd5b60006020828403121561372c578081fd5b8135610b4681613fcb565b60008060408385031215613749578081fd5b823561375481613fcb565b946020939093013593505050565b60008060408385031215613774578182fd5b823561377f81613fcb565b9150602083013561378f81613fcb565b809150509250929050565b6000806000606084860312156137ae578081fd5b83356137b981613fcb565b925060208401356137c981613fcb565b929592945050506040919091013590565b600080600080608085870312156137ef578081fd5b84356137fa81613fcb565b935060208581013561380b81613fcb565b935060408601359250606086013567ffffffffffffffff8082111561382e578384fd5b818801915088601f830112613841578384fd5b81358181111561384d57fe5b61385f601f8201601f19168501613f5d565b91508082528984828501011115613874578485fd5b8084840185840137810190920192909252939692955090935050565b600080604083850312156138a2578182fd5b82356138ad81613fcb565b9150602083013561378f81613fe0565b600080600080600060a086880312156138d4578081fd5b85356138df81613fcb565b9450602086013593506040860135925060608601356138fd81613fcb565b949793965091946080013592915050565b60008060408385031215613749578182fd5b60008060408385031215613932578182fd5b823567ffffffffffffffff80821115613949578384fd5b818501915085601f83011261395c578384fd5b813561396a6136b182613f81565b80828252602080830192508086018a82838702890101111561398a578889fd5b8896505b848710156139b55780356139a181613fcb565b84526001969096019592810192810161398e565b5090965087013593505050808211156139cc578283fd5b506139d985828601613693565b9150509250929050565b6000602082840312156139f4578081fd5b8151610b4681613fe0565b600060208284031215613a10578081fd5b5035919050565b600060208284031215613a28578081fd5b5051919050565b60008060408385031215613a41578182fd5b50508035926020909101359150565b600060208284031215613a61578081fd5b81356001600160e01b031981168114610b46578182fd5b600080600080600060a08688031215613a8f578283fd5b613a9886613701565b9450602086015193506040860151925060608601519150613abb60808701613701565b90509295509295909350565b6000815180845260208085019450808401835b83811015613aff5781516001600160a01b031687529582019590820190600101613ada565b509495945050505050565b6000815180845260208085019450808401835b83811015613aff57815187529582019590820190600101613b1d565b6bffffffffffffffffffffffff19606097881b8116825295871b861660148201529390951b9093166028830152603c820152605c810191909152607c810191909152609c0190565b60008251613b93818460208701613f9f565b9190910192915050565b6001600160a01b0391909116815260200190565b6001600160a01b039384168152919092166020820152604081019190915260600190565b6001600160a01b03929092168252602082015260400190565b600060018060a01b038616825284602083015260806040830152613c156080830185613ac7565b82810360608401526134cc8185613b0a565b6001600160a01b0394909416845260208401929092526040830152606082015260800190565b6001600160a01b03998a16815297891660208901529590971660408701526060860193909352608085019190915260a0840152151560c083015291151560e08201526101008101919091526101200190565b901515815260200190565b90815260200190565b6000602082528251806020840152613cd2816040850160208701613f9f565b601f01601f19169190910160400192915050565b60208082526018908201527f4e6f7420616e206f776e6572206f662061206261736b65740000000000000000604082015260600190565b60208082526021908201527f4e6f20436861696e6c696e6b205072696365204665656420417661696c61626c6040820152606560f81b606082015260800190565b6020808252600f908201526e151c985b9cd9995c8819985a5b1959608a1b604082015260600190565b60208082526017908201527f436f6e747261637420616c726561647920657869737473000000000000000000604082015260600190565b60208082526016908201527510d85b9b9bdd081d1c985b9cd9995c881b1bd8dad95960521b604082015260600190565b6020808252600c908201526b4e6f7420666f722073616c6560a01b604082015260600190565b60208082526011908201527010985cdad95d081b9bdd081b1a5cdd1959607a1b604082015260600190565b6020808252601a908201527f4261736b6574206e6f74206c6f636b656420666f722073616c65000000000000604082015260600190565b6020808252601b908201527f4e6f7420656e6f7567682066756e6473207472616e7366657265640000000000604082015260600190565b60208082526015908201527410985cdad95d08185b1c9958591e481b1a5cdd1959605a1b604082015260600190565b60208082526014908201527310d85b9b9bdd081d5b9ddc985c081b1bd8dad95960621b604082015260600190565b600084825260606020830152613f236060830185613ac7565b8281036040840152613f358185613b0a565b9695505050505050565b9182521515602082015260400190565b918252602082015260400190565b60405181810167ffffffffffffffff81118282101715613f7957fe5b604052919050565b600067ffffffffffffffff821115613f9557fe5b5060209081020190565b60005b83811015613fba578181015183820152602001613fa2565b8381111561229d5750506000910152565b6001600160a01b03811681146135fb57600080fd5b80151581146135fb57600080fdfe5468652048544c43206d7573742068617665206265656e2064657369676e6174656420616e20617070726f766564207370656e64657220666f722074686520746f6b656e4964456e756d657261626c655365743a20696e646578206f7574206f6620626f756e647374696d656c6f636b2074696d65206d75737420626520696e20746865206675747572654552433732313a207472616e7366657220746f206e6f6e20455243373231526563656976657220696d706c656d656e7465724552433732313a207472616e7366657220746f20746865207a65726f2061646472657373726566756e6461626c653a2074696d656c6f636b206e6f7420796574207061737365644552433732313a206f70657261746f7220717565727920666f72206e6f6e6578697374656e7420746f6b656e4552433732313a20617070726f76652063616c6c6572206973206e6f74206f776e6572206e6f7220617070726f76656420666f7220616c6c4552433732313a2062616c616e636520717565727920666f7220746865207a65726f20616464726573734552433732313a206f776e657220717565727920666f72206e6f6e6578697374656e7420746f6b656e456e756d657261626c654d61703a20696e646578206f7574206f6620626f756e64734552433732313a20617070726f76656420717565727920666f72206e6f6e6578697374656e7420746f6b656e4552433732313a207472616e73666572206f6620746f6b656e2074686174206973206e6f74206f776e4552433732314d657461646174613a2055524920717565727920666f72206e6f6e6578697374656e7420746f6b656e4552433732313a20617070726f76616c20746f2063757272656e74206f776e65724552433732313a207472616e736665722063616c6c6572206973206e6f74206f776e6572206e6f7220617070726f766564a264697066735822122038834303fcb787e7690efff157da8c7e71e37da51cbb18d2a9b8755a503e4da964736f6c63430007040033",
  "linkReferences": {},
  "deployedLinkReferences": {}
}